{
    "_format": "hh-sol-artifact-1",
    "contractName": "CrossChainBridge",
    "sourceName": "contracts/bridge/CrossChainBridge.sol",
    "abi": [
        {
            "inputs": [],
            "stateMutability": "nonpayable",
            "type": "constructor"
        },
        {
            "anonymous": false,
            "inputs": [
                {
                    "indexed": false,
                    "internalType": "string",
                    "name": "chainId",
                    "type": "string"
                },
                {
                    "indexed": false,
                    "internalType": "string",
                    "name": "endpoint",
                    "type": "string"
                }
            ],
            "name": "BridgeEndpointUpdated",
            "type": "event"
        },
        {
            "anonymous": false,
            "inputs": [
                {
                    "indexed": true,
                    "internalType": "uint256",
                    "name": "messageId",
                    "type": "uint256"
                },
                {
                    "indexed": false,
                    "internalType": "string",
                    "name": "sourceChain",
                    "type": "string"
                },
                {
                    "indexed": false,
                    "internalType": "string",
                    "name": "targetChain",
                    "type": "string"
                },
                {
                    "indexed": false,
                    "internalType": "bytes",
                    "name": "data",
                    "type": "bytes"
                }
            ],
            "name": "CrossChainMessage",
            "type": "event"
        },
        {
            "anonymous": false,
            "inputs": [
                {
                    "indexed": true,
                    "internalType": "bytes32",
                    "name": "role",
                    "type": "bytes32"
                },
                {
                    "indexed": true,
                    "internalType": "bytes32",
                    "name": "previousAdminRole",
                    "type": "bytes32"
                },
                {
                    "indexed": true,
                    "internalType": "bytes32",
                    "name": "newAdminRole",
                    "type": "bytes32"
                }
            ],
            "name": "RoleAdminChanged",
            "type": "event"
        },
        {
            "anonymous": false,
            "inputs": [
                {
                    "indexed": true,
                    "internalType": "bytes32",
                    "name": "role",
                    "type": "bytes32"
                },
                {
                    "indexed": true,
                    "internalType": "address",
                    "name": "account",
                    "type": "address"
                },
                {
                    "indexed": true,
                    "internalType": "address",
                    "name": "sender",
                    "type": "address"
                }
            ],
            "name": "RoleGranted",
            "type": "event"
        },
        {
            "anonymous": false,
            "inputs": [
                {
                    "indexed": true,
                    "internalType": "bytes32",
                    "name": "role",
                    "type": "bytes32"
                },
                {
                    "indexed": true,
                    "internalType": "address",
                    "name": "account",
                    "type": "address"
                },
                {
                    "indexed": true,
                    "internalType": "address",
                    "name": "sender",
                    "type": "address"
                }
            ],
            "name": "RoleRevoked",
            "type": "event"
        },
        {
            "anonymous": false,
            "inputs": [
                {
                    "indexed": true,
                    "internalType": "uint256",
                    "name": "requestId",
                    "type": "uint256"
                },
                {
                    "indexed": false,
                    "internalType": "bool",
                    "name": "verified",
                    "type": "bool"
                }
            ],
            "name": "VerificationCompleted",
            "type": "event"
        },
        {
            "anonymous": false,
            "inputs": [
                {
                    "indexed": true,
                    "internalType": "uint256",
                    "name": "requestId",
                    "type": "uint256"
                },
                {
                    "indexed": false,
                    "internalType": "string",
                    "name": "did",
                    "type": "string"
                },
                {
                    "indexed": false,
                    "internalType": "string",
                    "name": "sourceChain",
                    "type": "string"
                },
                {
                    "indexed": false,
                    "internalType": "string",
                    "name": "targetChain",
                    "type": "string"
                }
            ],
            "name": "VerificationRequested",
            "type": "event"
        },
        {
            "inputs": [],
            "name": "BRIDGE_ADMIN_ROLE",
            "outputs": [
                {
                    "internalType": "bytes32",
                    "name": "",
                    "type": "bytes32"
                }
            ],
            "stateMutability": "view",
            "type": "function"
        },
        {
            "inputs": [],
            "name": "DEFAULT_ADMIN_ROLE",
            "outputs": [
                {
                    "internalType": "bytes32",
                    "name": "",
                    "type": "bytes32"
                }
            ],
            "stateMutability": "view",
            "type": "function"
        },
        {
            "inputs": [],
            "name": "ORACLE_ROLE",
            "outputs": [
                {
                    "internalType": "bytes32",
                    "name": "",
                    "type": "bytes32"
                }
            ],
            "stateMutability": "view",
            "type": "function"
        },
        {
            "inputs": [
                {
                    "internalType": "string",
                    "name": "",
                    "type": "string"
                }
            ],
            "name": "bridgeEndpoints",
            "outputs": [
                {
                    "internalType": "string",
                    "name": "",
                    "type": "string"
                }
            ],
            "stateMutability": "view",
            "type": "function"
        },
        {
            "inputs": [
                {
                    "internalType": "uint256",
                    "name": "requestId",
                    "type": "uint256"
                },
                {
                    "internalType": "bool",
                    "name": "verified",
                    "type": "bool"
                }
            ],
            "name": "completeVerification",
            "outputs": [],
            "stateMutability": "nonpayable",
            "type": "function"
        },
        {
            "inputs": [
                {
                    "internalType": "bytes32",
                    "name": "role",
                    "type": "bytes32"
                }
            ],
            "name": "getRoleAdmin",
            "outputs": [
                {
                    "internalType": "bytes32",
                    "name": "",
                    "type": "bytes32"
                }
            ],
            "stateMutability": "view",
            "type": "function"
        },
        {
            "inputs": [
                {
                    "internalType": "bytes32",
                    "name": "role",
                    "type": "bytes32"
                },
                {
                    "internalType": "address",
                    "name": "account",
                    "type": "address"
                }
            ],
            "name": "grantRole",
            "outputs": [],
            "stateMutability": "nonpayable",
            "type": "function"
        },
        {
            "inputs": [
                {
                    "internalType": "bytes32",
                    "name": "role",
                    "type": "bytes32"
                },
                {
                    "internalType": "address",
                    "name": "account",
                    "type": "address"
                }
            ],
            "name": "hasRole",
            "outputs": [
                {
                    "internalType": "bool",
                    "name": "",
                    "type": "bool"
                }
            ],
            "stateMutability": "view",
            "type": "function"
        },
        {
            "inputs": [
                {
                    "internalType": "string",
                    "name": "targetChain",
                    "type": "string"
                },
                {
                    "internalType": "address",
                    "name": "issuer",
                    "type": "address"
                },
                {
                    "internalType": "string",
                    "name": "name",
                    "type": "string"
                },
                {
                    "internalType": "string",
                    "name": "symbol",
                    "type": "string"
                }
            ],
            "name": "relayAssetCreation",
            "outputs": [],
            "stateMutability": "nonpayable",
            "type": "function"
        },
        {
            "inputs": [
                {
                    "internalType": "bytes32",
                    "name": "role",
                    "type": "bytes32"
                },
                {
                    "internalType": "address",
                    "name": "account",
                    "type": "address"
                }
            ],
            "name": "renounceRole",
            "outputs": [],
            "stateMutability": "nonpayable",
            "type": "function"
        },
        {
            "inputs": [
                {
                    "internalType": "string",
                    "name": "did",
                    "type": "string"
                },
                {
                    "internalType": "string",
                    "name": "targetChain",
                    "type": "string"
                }
            ],
            "name": "requestVerification",
            "outputs": [
                {
                    "internalType": "uint256",
                    "name": "",
                    "type": "uint256"
                }
            ],
            "stateMutability": "nonpayable",
            "type": "function"
        },
        {
            "inputs": [
                {
                    "internalType": "bytes32",
                    "name": "role",
                    "type": "bytes32"
                },
                {
                    "internalType": "address",
                    "name": "account",
                    "type": "address"
                }
            ],
            "name": "revokeRole",
            "outputs": [],
            "stateMutability": "nonpayable",
            "type": "function"
        },
        {
            "inputs": [
                {
                    "internalType": "string",
                    "name": "targetChain",
                    "type": "string"
                },
                {
                    "internalType": "bytes",
                    "name": "data",
                    "type": "bytes"
                }
            ],
            "name": "sendCrossChainMessage",
            "outputs": [],
            "stateMutability": "nonpayable",
            "type": "function"
        },
        {
            "inputs": [
                {
                    "internalType": "string",
                    "name": "chainId",
                    "type": "string"
                },
                {
                    "internalType": "string",
                    "name": "endpoint",
                    "type": "string"
                }
            ],
            "name": "setBridgeEndpoint",
            "outputs": [],
            "stateMutability": "nonpayable",
            "type": "function"
        },
        {
            "inputs": [
                {
                    "internalType": "bytes4",
                    "name": "interfaceId",
                    "type": "bytes4"
                }
            ],
            "name": "supportsInterface",
            "outputs": [
                {
                    "internalType": "bool",
                    "name": "",
                    "type": "bool"
                }
            ],
            "stateMutability": "view",
            "type": "function"
        },
        {
            "inputs": [
                {
                    "internalType": "uint256",
                    "name": "",
                    "type": "uint256"
                }
            ],
            "name": "verificationRequests",
            "outputs": [
                {
                    "internalType": "uint256",
                    "name": "requestId",
                    "type": "uint256"
                },
                {
                    "internalType": "string",
                    "name": "sourceChain",
                    "type": "string"
                },
                {
                    "internalType": "string",
                    "name": "targetChain",
                    "type": "string"
                },
                {
                    "internalType": "string",
                    "name": "did",
                    "type": "string"
                },
                {
                    "internalType": "bool",
                    "name": "verified",
                    "type": "bool"
                },
                {
                    "internalType": "uint256",
                    "name": "timestamp",
                    "type": "uint256"
                }
            ],
            "stateMutability": "view",
            "type": "function"
        },
        {
            "inputs": [
                {
                    "internalType": "address",
                    "name": "soulboundContract",
                    "type": "address"
                },
                {
                    "internalType": "uint256",
                    "name": "tokenId",
                    "type": "uint256"
                },
                {
                    "internalType": "string",
                    "name": "targetChain",
                    "type": "string"
                }
            ],
            "name": "verifyIdentity",
            "outputs": [
                {
                    "internalType": "bool",
                    "name": "",
                    "type": "bool"
                }
            ],
            "stateMutability": "view",
            "type": "function"
        }
    ],
    "bytecode": "0x608060405234801561001057600080fd5b5061001c60003361004b565b6100467f751b795d24b92e3d92d1d0d8f2885f4e9c9c269da350af36ae6b49069babf4bf3361004b565b6100ea565b6000828152602081815260408083206001600160a01b038516845290915290205460ff166100e6576000828152602081815260408083206001600160a01b03851684529091529020805460ff191660011790556100a53390565b6001600160a01b0316816001600160a01b0316837f2f8788117e7eff1d82e926ec794901d17c78024a50270940304540a733656f0d60405160405180910390a45b5050565b611937806100f96000396000f3fe608060405234801561001057600080fd5b506004361061010b5760003560e01c80634089d49f116100a257806391d148541161007157806391d1485414610270578063a217fddf14610283578063d547741f1461028b578063dd6121561461029e578063e47626d8146102b157600080fd5b80634089d49f146102125780634de2bfbf14610237578063573b03f31461024a578063592910e41461025d57600080fd5b8063248a9ca3116100de578063248a9ca3146101a95780632f2ff15d146101cc57806336568abe146101df5780633df2b4c6146101f257600080fd5b806301ffc9a71461011057806307e2cea514610138578063118c38c71461016d578063189f92d314610194575b600080fd5b61012361011e3660046110e7565b6102c4565b60405190151581526020015b60405180910390f35b61015f7f68e79a7bf1e0bc45d0a330c573bc367f9cf464fd326078812f301165fbda4ef181565b60405190815260200161012f565b61015f7f751b795d24b92e3d92d1d0d8f2885f4e9c9c269da350af36ae6b49069babf4bf81565b6101a76101a23660046111de565b6102fb565b005b61015f6101b7366004611242565b60009081526020819052604090206001015490565b6101a76101da366004611277565b61038f565b6101a76101ed366004611277565b6103b9565b6102056102003660046112a3565b61043c565b60405161012f9190611328565b610225610220366004611242565b6104e1565b60405161012f9695949392919061133b565b61015f6102453660046111de565b6106b2565b6101a7610258366004611390565b610879565b6101a761026b3660046113c5565b6109b2565b61012361027e366004611277565b610a93565b61015f600081565b6101a7610299366004611277565b610abc565b6101a76102ac366004611433565b610ae1565b6101236102bf3660046114cc565b610b66565b60006001600160e01b03198216637965db0b60e01b14806102f557506301ffc9a760e01b6001600160e01b03198316145b92915050565b7f751b795d24b92e3d92d1d0d8f2885f4e9c9c269da350af36ae6b49069babf4bf61032581610ccf565b816001846040516103369190611523565b9081526020016040518091039020908161035091906115c7565b507f7ea1ad5ac7b30cd3f86bc0aef87b80713d0cdfb02c94392380282f307c067ac78383604051610382929190611687565b60405180910390a1505050565b6000828152602081905260409020600101546103aa81610ccf565b6103b48383610cdc565b505050565b6001600160a01b038116331461042e5760405162461bcd60e51b815260206004820152602f60248201527f416363657373436f6e74726f6c3a2063616e206f6e6c792072656e6f756e636560448201526e103937b632b9903337b91039b2b63360891b60648201526084015b60405180910390fd5b6104388282610d60565b5050565b8051602081830181018051600182529282019190930120915280546104609061153f565b80601f016020809104026020016040519081016040528092919081815260200182805461048c9061153f565b80156104d95780601f106104ae576101008083540402835291602001916104d9565b820191906000526020600020905b8154815290600101906020018083116104bc57829003601f168201915b505050505081565b600260205260009081526040902080546001820180549192916105039061153f565b80601f016020809104026020016040519081016040528092919081815260200182805461052f9061153f565b801561057c5780601f106105515761010080835404028352916020019161057c565b820191906000526020600020905b81548152906001019060200180831161055f57829003601f168201915b5050505050908060020180546105919061153f565b80601f01602080910402602001604051908101604052809291908181526020018280546105bd9061153f565b801561060a5780601f106105df5761010080835404028352916020019161060a565b820191906000526020600020905b8154815290600101906020018083116105ed57829003601f168201915b50505050509080600301805461061f9061153f565b80601f016020809104026020016040519081016040528092919081815260200182805461064b9061153f565b80156106985780601f1061066d57610100808354040283529160200191610698565b820191906000526020600020905b81548152906001019060200180831161067b57829003601f168201915b505050506004830154600590930154919260ff1691905086565b6000808351116106f25760405162461bcd60e51b815260206004820152600b60248201526a125b9d985b1a590811125160aa1b6044820152606401610425565b60006001836040516107049190611523565b9081526020016040518091039020805461071d9061153f565b90501161076c5760405162461bcd60e51b815260206004820152601a60248201527f54617267657420636861696e206e6f7420737570706f727465640000000000006044820152606401610425565b6000610776610dc5565b60038054919250600091908261078b836116cb565b909155506040805160c0810182528281526020808201868152828401899052606083018a90526000608084018190524260a085015285815260029092529290208151815591519293509160018201906107e490826115c7565b50604082015160028201906107f990826115c7565b506060820151600382019061080e90826115c7565b50608082015160048201805460ff191691151591909117905560a09091015160059091015560405181907f3110d10d6f9a2e7653304fde4eb91f33209dfdb930bb6bd22b24e67559b8ae7490610869908890869089906116e4565b60405180910390a2949350505050565b7f68e79a7bf1e0bc45d0a330c573bc367f9cf464fd326078812f301165fbda4ef16108a381610ccf565b60008381526002602052604090205483146108f55760405162461bcd60e51b8152602060048201526012602482015271125b9d985b1a59081c995c5d595cdd08125160721b6044820152606401610425565b60008381526002602052604090206004015460ff16156109575760405162461bcd60e51b815260206004820152601960248201527f5265717565737420616c726561647920636f6d706c65746564000000000000006044820152606401610425565b600083815260026020908152604091829020600401805460ff1916851515908117909155915191825284917f9836dc47c75b7cdf9f3c6918e37848e107a9b6ea2209871e46b5f05895e20f34910160405180910390a2505050565b60006001836040516109c49190611523565b908152602001604051809103902080546109dd9061153f565b905011610a2c5760405162461bcd60e51b815260206004820152601a60248201527f54617267657420636861696e206e6f7420737570706f727465640000000000006044820152606401610425565b6000610a36610dc5565b600380549192506000919082610a4b836116cb565b919050559050807f9ed36f6642ab80078f877e2c207e7dfd8b7287578e87cce6c35c0f42936a0db7838686604051610a85939291906116e4565b60405180910390a250505050565b6000918252602082815260408084206001600160a01b0393909316845291905290205460ff1690565b600082815260208190526040902060010154610ad781610ccf565b6103b48383610d60565b6000838383604051602001610af893929190611727565b60408051601f198184030181529082905263164a443960e21b82529150309063592910e490610b2d9088908590600401611687565b600060405180830381600087803b158015610b4757600080fd5b505af1158015610b5b573d6000803e3d6000fd5b505050505050505050565b604051631fafb68f60e01b815260048101839052600090849082906001600160a01b03831690631fafb68f90602401600060405180830381865afa158015610bb2573d6000803e3d6000fd5b505050506040513d6000823e601f3d908101601f19168201604052610bda919081019061175d565b90506000815111610c1b5760405162461bcd60e51b815260206004820152600b60248201526a125b9d985b1a590811125160aa1b6044820152606401610425565b6000610c25610dc5565b90508480519060200120818051906020012003610c485760019350505050610cc8565b604051636c8c193760e01b81526000906001600160a01b03851690636c8c193790610c79908a908a906004016117cb565b600060405180830381865afa158015610c96573d6000803e3d6000fd5b505050506040513d6000823e601f3d908101601f19168201604052610cbe919081019061175d565b5115159450505050505b9392505050565b610cd98133610dd7565b50565b610ce68282610a93565b610438576000828152602081815260408083206001600160a01b03851684529091529020805460ff19166001179055610d1c3390565b6001600160a01b0316816001600160a01b0316837f2f8788117e7eff1d82e926ec794901d17c78024a50270940304540a733656f0d60405160405180910390a45050565b610d6a8282610a93565b15610438576000828152602081815260408083206001600160a01b0385168085529252808320805460ff1916905551339285917ff6391f5c32d9c69d2a47ea670b442974b53935d1edc7fd64eb21e047a839171b9190a45050565b606046610dd181610e30565b91505090565b610de18282610a93565b61043857610dee81610f39565b610df9836020610f4b565b604051602001610e0a9291906117e4565b60408051601f198184030181529082905262461bcd60e51b825261042591600401611328565b606081600003610e575750506040805180820190915260018152600360fc1b602082015290565b8160005b8115610e815780610e6b816116cb565b9150610e7a9050600a8361186f565b9150610e5b565b60008167ffffffffffffffff811115610e9c57610e9c611111565b6040519080825280601f01601f191660200182016040528015610ec6576020820181803683370190505b5090505b8415610f3157610edb600183611883565b9150610ee8600a86611896565b610ef39060306118aa565b60f81b818381518110610f0857610f086118bd565b60200101906001600160f81b031916908160001a905350610f2a600a8661186f565b9450610eca565b949350505050565b60606102f56001600160a01b03831660145b60606000610f5a8360026118d3565b610f659060026118aa565b67ffffffffffffffff811115610f7d57610f7d611111565b6040519080825280601f01601f191660200182016040528015610fa7576020820181803683370190505b509050600360fc1b81600081518110610fc257610fc26118bd565b60200101906001600160f81b031916908160001a905350600f60fb1b81600181518110610ff157610ff16118bd565b60200101906001600160f81b031916908160001a90535060006110158460026118d3565b6110209060016118aa565b90505b6001811115611098576f181899199a1a9b1b9c1cb0b131b232b360811b85600f1660108110611054576110546118bd565b1a60f81b82828151811061106a5761106a6118bd565b60200101906001600160f81b031916908160001a90535060049490941c93611091816118ea565b9050611023565b508315610cc85760405162461bcd60e51b815260206004820181905260248201527f537472696e67733a20686578206c656e67746820696e73756666696369656e746044820152606401610425565b6000602082840312156110f957600080fd5b81356001600160e01b031981168114610cc857600080fd5b634e487b7160e01b600052604160045260246000fd5b604051601f8201601f1916810167ffffffffffffffff8111828210171561115057611150611111565b604052919050565b600067ffffffffffffffff82111561117257611172611111565b50601f01601f191660200190565b600061119361118e84611158565b611127565b90508281528383830111156111a757600080fd5b828260208301376000602084830101529392505050565b600082601f8301126111cf57600080fd5b610cc883833560208501611180565b600080604083850312156111f157600080fd5b823567ffffffffffffffff8082111561120957600080fd5b611215868387016111be565b9350602085013591508082111561122b57600080fd5b50611238858286016111be565b9150509250929050565b60006020828403121561125457600080fd5b5035919050565b80356001600160a01b038116811461127257600080fd5b919050565b6000806040838503121561128a57600080fd5b8235915061129a6020840161125b565b90509250929050565b6000602082840312156112b557600080fd5b813567ffffffffffffffff8111156112cc57600080fd5b610f31848285016111be565b60005b838110156112f35781810151838201526020016112db565b50506000910152565b600081518084526113148160208601602086016112d8565b601f01601f19169290920160200192915050565b602081526000610cc860208301846112fc565b86815260c06020820152600061135460c08301886112fc565b828103604084015261136681886112fc565b9050828103606084015261137a81876112fc565b9415156080840152505060a00152949350505050565b600080604083850312156113a357600080fd5b82359150602083013580151581146113ba57600080fd5b809150509250929050565b600080604083850312156113d857600080fd5b823567ffffffffffffffff808211156113f057600080fd5b6113fc868387016111be565b9350602085013591508082111561141257600080fd5b508301601f8101851361142457600080fd5b61123885823560208401611180565b6000806000806080858703121561144957600080fd5b843567ffffffffffffffff8082111561146157600080fd5b61146d888389016111be565b955061147b6020880161125b565b9450604087013591508082111561149157600080fd5b61149d888389016111be565b935060608701359150808211156114b357600080fd5b506114c0878288016111be565b91505092959194509250565b6000806000606084860312156114e157600080fd5b6114ea8461125b565b925060208401359150604084013567ffffffffffffffff81111561150d57600080fd5b611519868287016111be565b9150509250925092565b600082516115358184602087016112d8565b9190910192915050565b600181811c9082168061155357607f821691505b60208210810361157357634e487b7160e01b600052602260045260246000fd5b50919050565b601f8211156103b457600081815260208120601f850160051c810160208610156115a05750805b601f850160051c820191505b818110156115bf578281556001016115ac565b505050505050565b815167ffffffffffffffff8111156115e1576115e1611111565b6115f5816115ef845461153f565b84611579565b602080601f83116001811461162a57600084156116125750858301515b600019600386901b1c1916600185901b1785556115bf565b600085815260208120601f198616915b828110156116595788860151825594840194600190910190840161163a565b50858210156116775787850151600019600388901b60f8161c191681555b5050505050600190811b01905550565b60408152600061169a60408301856112fc565b82810360208401526116ac81856112fc565b95945050505050565b634e487b7160e01b600052601160045260246000fd5b6000600182016116dd576116dd6116b5565b5060010190565b6060815260006116f760608301866112fc565b828103602084015261170981866112fc565b9050828103604084015261171d81856112fc565b9695505050505050565b6001600160a01b038416815260606020820181905260009061174b908301856112fc565b828103604084015261171d81856112fc565b60006020828403121561176f57600080fd5b815167ffffffffffffffff81111561178657600080fd5b8201601f8101841361179757600080fd5b80516117a561118e82611158565b8181528560208385010111156117ba57600080fd5b6116ac8260208301602086016112d8565b828152604060208201526000610f3160408301846112fc565b7f416363657373436f6e74726f6c3a206163636f756e742000000000000000000081526000835161181c8160178501602088016112d8565b7001034b99036b4b9b9b4b733903937b6329607d1b601791840191820152835161184d8160288401602088016112d8565b01602801949350505050565b634e487b7160e01b600052601260045260246000fd5b60008261187e5761187e611859565b500490565b818103818111156102f5576102f56116b5565b6000826118a5576118a5611859565b500690565b808201808211156102f5576102f56116b5565b634e487b7160e01b600052603260045260246000fd5b80820281158282048414176102f5576102f56116b5565b6000816118f9576118f96116b5565b50600019019056fea26469706673582212203462d1cebf83af10d8a4dd124390acf702cba54ed29b292251973dc1308f01b764736f6c63430008130033",
    "linkReferences": {},
    "deployedLinkReferences": {}
}