{
    "_format": "hh-sol-artifact-1",
    "contractName": "SoulboundNFT",
    "sourceName": "contracts/identity/SoulboundNFT.sol",
    "abi": [
        {
            "inputs": [],
            "stateMutability": "nonpayable",
            "type": "constructor"
        },
        {
            "anonymous": false,
            "inputs": [
                {
                    "indexed": true,
                    "internalType": "address",
                    "name": "owner",
                    "type": "address"
                },
                {
                    "indexed": true,
                    "internalType": "address",
                    "name": "approved",
                    "type": "address"
                },
                {
                    "indexed": true,
                    "internalType": "uint256",
                    "name": "tokenId",
                    "type": "uint256"
                }
            ],
            "name": "Approval",
            "type": "event"
        },
        {
            "anonymous": false,
            "inputs": [
                {
                    "indexed": true,
                    "internalType": "address",
                    "name": "owner",
                    "type": "address"
                },
                {
                    "indexed": true,
                    "internalType": "address",
                    "name": "operator",
                    "type": "address"
                },
                {
                    "indexed": false,
                    "internalType": "bool",
                    "name": "approved",
                    "type": "bool"
                }
            ],
            "name": "ApprovalForAll",
            "type": "event"
        },
        {
            "anonymous": false,
            "inputs": [
                {
                    "indexed": false,
                    "internalType": "uint256",
                    "name": "_fromTokenId",
                    "type": "uint256"
                },
                {
                    "indexed": false,
                    "internalType": "uint256",
                    "name": "_toTokenId",
                    "type": "uint256"
                }
            ],
            "name": "BatchMetadataUpdate",
            "type": "event"
        },
        {
            "anonymous": false,
            "inputs": [
                {
                    "indexed": true,
                    "internalType": "uint256",
                    "name": "tokenId",
                    "type": "uint256"
                },
                {
                    "indexed": false,
                    "internalType": "string",
                    "name": "chainId",
                    "type": "string"
                },
                {
                    "indexed": false,
                    "internalType": "string",
                    "name": "chainAddress",
                    "type": "string"
                }
            ],
            "name": "ChainIdentityAdded",
            "type": "event"
        },
        {
            "anonymous": false,
            "inputs": [
                {
                    "indexed": true,
                    "internalType": "uint256",
                    "name": "tokenId",
                    "type": "uint256"
                },
                {
                    "indexed": false,
                    "internalType": "string",
                    "name": "newCredential",
                    "type": "string"
                }
            ],
            "name": "CredentialUpdated",
            "type": "event"
        },
        {
            "anonymous": false,
            "inputs": [
                {
                    "indexed": true,
                    "internalType": "address",
                    "name": "entity",
                    "type": "address"
                },
                {
                    "indexed": true,
                    "internalType": "uint256",
                    "name": "tokenId",
                    "type": "uint256"
                },
                {
                    "indexed": false,
                    "internalType": "string",
                    "name": "did",
                    "type": "string"
                }
            ],
            "name": "IdentityVerified",
            "type": "event"
        },
        {
            "anonymous": false,
            "inputs": [
                {
                    "indexed": false,
                    "internalType": "uint256",
                    "name": "_tokenId",
                    "type": "uint256"
                }
            ],
            "name": "MetadataUpdate",
            "type": "event"
        },
        {
            "anonymous": false,
            "inputs": [
                {
                    "indexed": true,
                    "internalType": "bytes32",
                    "name": "role",
                    "type": "bytes32"
                },
                {
                    "indexed": true,
                    "internalType": "bytes32",
                    "name": "previousAdminRole",
                    "type": "bytes32"
                },
                {
                    "indexed": true,
                    "internalType": "bytes32",
                    "name": "newAdminRole",
                    "type": "bytes32"
                }
            ],
            "name": "RoleAdminChanged",
            "type": "event"
        },
        {
            "anonymous": false,
            "inputs": [
                {
                    "indexed": true,
                    "internalType": "bytes32",
                    "name": "role",
                    "type": "bytes32"
                },
                {
                    "indexed": true,
                    "internalType": "address",
                    "name": "account",
                    "type": "address"
                },
                {
                    "indexed": true,
                    "internalType": "address",
                    "name": "sender",
                    "type": "address"
                }
            ],
            "name": "RoleGranted",
            "type": "event"
        },
        {
            "anonymous": false,
            "inputs": [
                {
                    "indexed": true,
                    "internalType": "bytes32",
                    "name": "role",
                    "type": "bytes32"
                },
                {
                    "indexed": true,
                    "internalType": "address",
                    "name": "account",
                    "type": "address"
                },
                {
                    "indexed": true,
                    "internalType": "address",
                    "name": "sender",
                    "type": "address"
                }
            ],
            "name": "RoleRevoked",
            "type": "event"
        },
        {
            "anonymous": false,
            "inputs": [
                {
                    "indexed": true,
                    "internalType": "address",
                    "name": "from",
                    "type": "address"
                },
                {
                    "indexed": true,
                    "internalType": "address",
                    "name": "to",
                    "type": "address"
                },
                {
                    "indexed": true,
                    "internalType": "uint256",
                    "name": "tokenId",
                    "type": "uint256"
                }
            ],
            "name": "Transfer",
            "type": "event"
        },
        {
            "inputs": [],
            "name": "DEFAULT_ADMIN_ROLE",
            "outputs": [
                {
                    "internalType": "bytes32",
                    "name": "",
                    "type": "bytes32"
                }
            ],
            "stateMutability": "view",
            "type": "function"
        },
        {
            "inputs": [],
            "name": "VERIFIER_ROLE",
            "outputs": [
                {
                    "internalType": "bytes32",
                    "name": "",
                    "type": "bytes32"
                }
            ],
            "stateMutability": "view",
            "type": "function"
        },
        {
            "inputs": [
                {
                    "internalType": "uint256",
                    "name": "tokenId",
                    "type": "uint256"
                },
                {
                    "internalType": "string",
                    "name": "chainId",
                    "type": "string"
                },
                {
                    "internalType": "string",
                    "name": "chainAddress",
                    "type": "string"
                }
            ],
            "name": "addChainIdentity",
            "outputs": [],
            "stateMutability": "nonpayable",
            "type": "function"
        },
        {
            "inputs": [
                {
                    "internalType": "address",
                    "name": "to",
                    "type": "address"
                },
                {
                    "internalType": "uint256",
                    "name": "tokenId",
                    "type": "uint256"
                }
            ],
            "name": "approve",
            "outputs": [],
            "stateMutability": "nonpayable",
            "type": "function"
        },
        {
            "inputs": [
                {
                    "internalType": "address",
                    "name": "owner",
                    "type": "address"
                }
            ],
            "name": "balanceOf",
            "outputs": [
                {
                    "internalType": "uint256",
                    "name": "",
                    "type": "uint256"
                }
            ],
            "stateMutability": "view",
            "type": "function"
        },
        {
            "inputs": [
                {
                    "internalType": "string",
                    "name": "",
                    "type": "string"
                }
            ],
            "name": "didToTokenId",
            "outputs": [
                {
                    "internalType": "uint256",
                    "name": "",
                    "type": "uint256"
                }
            ],
            "stateMutability": "view",
            "type": "function"
        },
        {
            "inputs": [
                {
                    "internalType": "uint256",
                    "name": "tokenId",
                    "type": "uint256"
                }
            ],
            "name": "getApproved",
            "outputs": [
                {
                    "internalType": "address",
                    "name": "",
                    "type": "address"
                }
            ],
            "stateMutability": "view",
            "type": "function"
        },
        {
            "inputs": [
                {
                    "internalType": "uint256",
                    "name": "tokenId",
                    "type": "uint256"
                },
                {
                    "internalType": "string",
                    "name": "chainId",
                    "type": "string"
                }
            ],
            "name": "getChainAddress",
            "outputs": [
                {
                    "internalType": "string",
                    "name": "",
                    "type": "string"
                }
            ],
            "stateMutability": "view",
            "type": "function"
        },
        {
            "inputs": [
                {
                    "internalType": "uint256",
                    "name": "tokenId",
                    "type": "uint256"
                }
            ],
            "name": "getDID",
            "outputs": [
                {
                    "internalType": "string",
                    "name": "",
                    "type": "string"
                }
            ],
            "stateMutability": "view",
            "type": "function"
        },
        {
            "inputs": [
                {
                    "internalType": "bytes32",
                    "name": "role",
                    "type": "bytes32"
                }
            ],
            "name": "getRoleAdmin",
            "outputs": [
                {
                    "internalType": "bytes32",
                    "name": "",
                    "type": "bytes32"
                }
            ],
            "stateMutability": "view",
            "type": "function"
        },
        {
            "inputs": [
                {
                    "internalType": "string",
                    "name": "did",
                    "type": "string"
                }
            ],
            "name": "getTokenIdByDID",
            "outputs": [
                {
                    "internalType": "uint256",
                    "name": "",
                    "type": "uint256"
                }
            ],
            "stateMutability": "view",
            "type": "function"
        },
        {
            "inputs": [
                {
                    "internalType": "uint256",
                    "name": "tokenId",
                    "type": "uint256"
                }
            ],
            "name": "getVerifiableCredential",
            "outputs": [
                {
                    "internalType": "string",
                    "name": "",
                    "type": "string"
                }
            ],
            "stateMutability": "view",
            "type": "function"
        },
        {
            "inputs": [
                {
                    "internalType": "bytes32",
                    "name": "role",
                    "type": "bytes32"
                },
                {
                    "internalType": "address",
                    "name": "account",
                    "type": "address"
                }
            ],
            "name": "grantRole",
            "outputs": [],
            "stateMutability": "nonpayable",
            "type": "function"
        },
        {
            "inputs": [
                {
                    "internalType": "bytes32",
                    "name": "role",
                    "type": "bytes32"
                },
                {
                    "internalType": "address",
                    "name": "account",
                    "type": "address"
                }
            ],
            "name": "hasRole",
            "outputs": [
                {
                    "internalType": "bool",
                    "name": "",
                    "type": "bool"
                }
            ],
            "stateMutability": "view",
            "type": "function"
        },
        {
            "inputs": [
                {
                    "internalType": "address",
                    "name": "owner",
                    "type": "address"
                },
                {
                    "internalType": "address",
                    "name": "operator",
                    "type": "address"
                }
            ],
            "name": "isApprovedForAll",
            "outputs": [
                {
                    "internalType": "bool",
                    "name": "",
                    "type": "bool"
                }
            ],
            "stateMutability": "view",
            "type": "function"
        },
        {
            "inputs": [],
            "name": "name",
            "outputs": [
                {
                    "internalType": "string",
                    "name": "",
                    "type": "string"
                }
            ],
            "stateMutability": "view",
            "type": "function"
        },
        {
            "inputs": [
                {
                    "internalType": "uint256",
                    "name": "tokenId",
                    "type": "uint256"
                }
            ],
            "name": "ownerOf",
            "outputs": [
                {
                    "internalType": "address",
                    "name": "",
                    "type": "address"
                }
            ],
            "stateMutability": "view",
            "type": "function"
        },
        {
            "inputs": [
                {
                    "internalType": "bytes32",
                    "name": "role",
                    "type": "bytes32"
                },
                {
                    "internalType": "address",
                    "name": "account",
                    "type": "address"
                }
            ],
            "name": "renounceRole",
            "outputs": [],
            "stateMutability": "nonpayable",
            "type": "function"
        },
        {
            "inputs": [
                {
                    "internalType": "bytes32",
                    "name": "role",
                    "type": "bytes32"
                },
                {
                    "internalType": "address",
                    "name": "account",
                    "type": "address"
                }
            ],
            "name": "revokeRole",
            "outputs": [],
            "stateMutability": "nonpayable",
            "type": "function"
        },
        {
            "inputs": [
                {
                    "internalType": "address",
                    "name": "from",
                    "type": "address"
                },
                {
                    "internalType": "address",
                    "name": "to",
                    "type": "address"
                },
                {
                    "internalType": "uint256",
                    "name": "tokenId",
                    "type": "uint256"
                }
            ],
            "name": "safeTransferFrom",
            "outputs": [],
            "stateMutability": "nonpayable",
            "type": "function"
        },
        {
            "inputs": [
                {
                    "internalType": "address",
                    "name": "from",
                    "type": "address"
                },
                {
                    "internalType": "address",
                    "name": "to",
                    "type": "address"
                },
                {
                    "internalType": "uint256",
                    "name": "tokenId",
                    "type": "uint256"
                },
                {
                    "internalType": "bytes",
                    "name": "data",
                    "type": "bytes"
                }
            ],
            "name": "safeTransferFrom",
            "outputs": [],
            "stateMutability": "nonpayable",
            "type": "function"
        },
        {
            "inputs": [
                {
                    "internalType": "address",
                    "name": "operator",
                    "type": "address"
                },
                {
                    "internalType": "bool",
                    "name": "approved",
                    "type": "bool"
                }
            ],
            "name": "setApprovalForAll",
            "outputs": [],
            "stateMutability": "nonpayable",
            "type": "function"
        },
        {
            "inputs": [
                {
                    "internalType": "bytes4",
                    "name": "interfaceId",
                    "type": "bytes4"
                }
            ],
            "name": "supportsInterface",
            "outputs": [
                {
                    "internalType": "bool",
                    "name": "",
                    "type": "bool"
                }
            ],
            "stateMutability": "view",
            "type": "function"
        },
        {
            "inputs": [],
            "name": "symbol",
            "outputs": [
                {
                    "internalType": "string",
                    "name": "",
                    "type": "string"
                }
            ],
            "stateMutability": "view",
            "type": "function"
        },
        {
            "inputs": [
                {
                    "internalType": "uint256",
                    "name": "",
                    "type": "uint256"
                }
            ],
            "name": "tokenHierarchy",
            "outputs": [
                {
                    "internalType": "uint256",
                    "name": "parentId",
                    "type": "uint256"
                },
                {
                    "internalType": "address",
                    "name": "owner",
                    "type": "address"
                },
                {
                    "internalType": "string",
                    "name": "did",
                    "type": "string"
                },
                {
                    "internalType": "string",
                    "name": "verifiableCredential",
                    "type": "string"
                }
            ],
            "stateMutability": "view",
            "type": "function"
        },
        {
            "inputs": [
                {
                    "internalType": "uint256",
                    "name": "tokenId",
                    "type": "uint256"
                }
            ],
            "name": "tokenURI",
            "outputs": [
                {
                    "internalType": "string",
                    "name": "",
                    "type": "string"
                }
            ],
            "stateMutability": "view",
            "type": "function"
        },
        {
            "inputs": [
                {
                    "internalType": "address",
                    "name": "from",
                    "type": "address"
                },
                {
                    "internalType": "address",
                    "name": "to",
                    "type": "address"
                },
                {
                    "internalType": "uint256",
                    "name": "tokenId",
                    "type": "uint256"
                }
            ],
            "name": "transferFrom",
            "outputs": [],
            "stateMutability": "nonpayable",
            "type": "function"
        },
        {
            "inputs": [
                {
                    "internalType": "uint256",
                    "name": "tokenId",
                    "type": "uint256"
                },
                {
                    "internalType": "string",
                    "name": "newVC",
                    "type": "string"
                }
            ],
            "name": "updateCredential",
            "outputs": [],
            "stateMutability": "nonpayable",
            "type": "function"
        },
        {
            "inputs": [
                {
                    "internalType": "address",
                    "name": "entity",
                    "type": "address"
                },
                {
                    "internalType": "string",
                    "name": "did",
                    "type": "string"
                },
                {
                    "internalType": "string",
                    "name": "vc",
                    "type": "string"
                }
            ],
            "name": "verifyIdentity",
            "outputs": [],
            "stateMutability": "nonpayable",
            "type": "function"
        }
    ],
    "bytecode": "0x60806040523480156200001157600080fd5b5060405180604001604052806011815260200170536f756c626f756e644964656e7469747960781b8152506040518060400160405280600481526020016314d0925160e21b81525081600090816200006a919062000207565b50600162000079828262000207565b506200008b91506000905033620000bd565b620000b77f0ce23c3e399818cfee81a7ab0880f714e53d7672b08df0fa62f2843416e1ea0933620000bd565b620002d3565b60008281526007602090815260408083206001600160a01b038516845290915290205460ff166200015e5760008281526007602090815260408083206001600160a01b03851684529091529020805460ff191660011790556200011d3390565b6001600160a01b0316816001600160a01b0316837f2f8788117e7eff1d82e926ec794901d17c78024a50270940304540a733656f0d60405160405180910390a45b5050565b634e487b7160e01b600052604160045260246000fd5b600181811c908216806200018d57607f821691505b602082108103620001ae57634e487b7160e01b600052602260045260246000fd5b50919050565b601f8211156200020257600081815260208120601f850160051c81016020861015620001dd5750805b601f850160051c820191505b81811015620001fe57828155600101620001e9565b5050505b505050565b81516001600160401b0381111562000223576200022362000162565b6200023b8162000234845462000178565b84620001b4565b602080601f8311600181146200027357600084156200025a5750858301515b600019600386901b1c1916600185901b178555620001fe565b600085815260208120601f198616915b82811015620002a45788860151825594840194600190910190840162000283565b5085821015620002c35787850151600019600388901b60f8161c191681555b5050505050600190811b01905550565b61268380620002e36000396000f3fe608060405234801561001057600080fd5b50600436106101cf5760003560e01c80635d4e7baf11610104578063a217fddf116100a2578063d547741f11610071578063d547741f14610410578063e7705db614610423578063e985e9c51461044a578063edd403391461048657600080fd5b8063a217fddf146103cf578063a22cb465146103d7578063b88d4fde146103ea578063c87b56dd146103fd57600080fd5b806370a08231116100de57806370a082311461037657806391d148541461038957806395d89b411461039c5780639691019a146103a457600080fd5b80635d4e7baf1461032d5780636352211e146103505780636c8c19371461036357600080fd5b8063248a9ca31161017157806336568abe1161014b57806336568abe146102e157806342842e0e146102f457806346a4cacb1461030757806359cda2cc1461031a57600080fd5b8063248a9ca3146102985780632a50d9da146102bb5780632f2ff15d146102ce57600080fd5b8063095ea7b3116101ad578063095ea7b31461023c5780631285a327146102515780631fafb68f1461027257806323b872dd1461028557600080fd5b806301ffc9a7146101d457806306fdde03146101fc578063081812fc14610211575b600080fd5b6101e76101e2366004611de3565b610499565b60405190151581526020015b60405180910390f35b6102046104aa565b6040516101f39190611e50565b61022461021f366004611e63565b61053c565b6040516001600160a01b0390911681526020016101f3565b61024f61024a366004611e98565b610563565b005b61026461025f366004611f6e565b61067d565b6040519081526020016101f3565b610204610280366004611e63565b6106e1565b61024f610293366004611fa3565b6107a9565b6102646102a6366004611e63565b60009081526007602052604090206001015490565b61024f6102c9366004611fdf565b6107da565b61024f6102dc36600461204c565b6108d4565b61024f6102ef36600461204c565b6108f9565b61024f610302366004611fa3565b610977565b61024f610315366004612078565b610992565b610204610328366004611e63565b610a2e565b61034061033b366004611e63565b610a71565b6040516101f394939291906120bf565b61022461035e366004611e63565b610bb4565b610204610371366004612078565b610c14565b610264610384366004612106565b610cfe565b6101e761039736600461204c565b610d84565b610204610daf565b6102646103b2366004611f6e565b8051602081830181018051600a8252928201919093012091525481565b610264600081565b61024f6103e5366004612121565b610dbe565b61024f6103f836600461215d565b610dc9565b61020461040b366004611e63565b610e01565b61024f61041e36600461204c565b610e0c565b6102647f0ce23c3e399818cfee81a7ab0880f714e53d7672b08df0fa62f2843416e1ea0981565b6101e76104583660046121d9565b6001600160a01b03918216600090815260056020908152604080832093909416825291909152205460ff1690565b61024f610494366004612203565b610e31565b60006104a48261102f565b92915050565b6060600080546104b99061223e565b80601f01602080910402602001604051908101604052809291908181526020018280546104e59061223e565b80156105325780601f1061050757610100808354040283529160200191610532565b820191906000526020600020905b81548152906001019060200180831161051557829003601f168201915b5050505050905090565b600061054782611054565b506000908152600460205260409020546001600160a01b031690565b600061056e82610bb4565b9050806001600160a01b0316836001600160a01b0316036105e05760405162461bcd60e51b815260206004820152602160248201527f4552433732313a20617070726f76616c20746f2063757272656e74206f776e656044820152603960f91b60648201526084015b60405180910390fd5b336001600160a01b03821614806105fc57506105fc8133610458565b61066e5760405162461bcd60e51b815260206004820152603d60248201527f4552433732313a20617070726f76652063616c6c6572206973206e6f7420746f60448201527f6b656e206f776e6572206f7220617070726f76656420666f7220616c6c00000060648201526084016105d7565b61067883836110a7565b505050565b600080600a836040516106909190612278565b9081526020016040518091039020549050806000036104a45760405162461bcd60e51b815260206004820152600d60248201526c111251081b9bdd08199bdd5b99609a1b60448201526064016105d7565b60606106ec82611115565b6107085760405162461bcd60e51b81526004016105d790612294565b600082815260096020526040902060020180546107249061223e565b80601f01602080910402602001604051908101604052809291908181526020018280546107509061223e565b801561079d5780601f106107725761010080835404028352916020019161079d565b820191906000526020600020905b81548152906001019060200180831161078057829003601f168201915b50505050509050919050565b6107b33382611132565b6107cf5760405162461bcd60e51b81526004016105d7906122c2565b6106788383836111b1565b6107e383611115565b6107ff5760405162461bcd60e51b81526004016105d790612294565b3361080984610bb4565b6001600160a01b0316146108555760405162461bcd60e51b81526020600482015260136024820152722737ba103a3432903a37b5b2b71037bbb732b960691b60448201526064016105d7565b60008381526009602052604090819020905182906004830190610879908690612278565b90815260200160405180910390209081610893919061235d565b50837f909e153d73c51923b279616421ff7bdbc39f924c06fb3ea3acabd66e094cd2aa84846040516108c692919061241d565b60405180910390a250505050565b6000828152600760205260409020600101546108ef81611322565b610678838361132c565b6001600160a01b03811633146109695760405162461bcd60e51b815260206004820152602f60248201527f416363657373436f6e74726f6c3a2063616e206f6e6c792072656e6f756e636560448201526e103937b632b9903337b91039b2b63360891b60648201526084016105d7565b61097382826113b2565b5050565b61067883838360405180602001604052806000815250610dc9565b7f0ce23c3e399818cfee81a7ab0880f714e53d7672b08df0fa62f2843416e1ea096109bc81611322565b6109c583611115565b6109e15760405162461bcd60e51b81526004016105d790612294565b6000838152600960205260409020600381016109fd848261235d565b50837f2e8e6091704955cfc07e453d6e886f43ca42874070e198b3e415c594b4d6343c846040516108c69190611e50565b6060610a3982611115565b610a555760405162461bcd60e51b81526004016105d790612294565b600082815260096020526040902060030180546107249061223e565b60096020526000908152604090208054600182015460028301805492936001600160a01b0390921692610aa39061223e565b80601f0160208091040260200160405190810160405280929190818152602001828054610acf9061223e565b8015610b1c5780601f10610af157610100808354040283529160200191610b1c565b820191906000526020600020905b815481529060010190602001808311610aff57829003601f168201915b505050505090806003018054610b319061223e565b80601f0160208091040260200160405190810160405280929190818152602001828054610b5d9061223e565b8015610baa5780601f10610b7f57610100808354040283529160200191610baa565b820191906000526020600020905b815481529060010190602001808311610b8d57829003601f168201915b5050505050905084565b6000818152600260205260408120546001600160a01b0316806104a45760405162461bcd60e51b8152602060048201526018602482015277115490cdcc8c4e881a5b9d985b1a59081d1bdad95b88125160421b60448201526064016105d7565b6060610c1f83611115565b610c3b5760405162461bcd60e51b81526004016105d790612294565b6009600084815260200190815260200160002060040182604051610c5f9190612278565b90815260200160405180910390208054610c789061223e565b80601f0160208091040260200160405190810160405280929190818152602001828054610ca49061223e565b8015610cf15780601f10610cc657610100808354040283529160200191610cf1565b820191906000526020600020905b815481529060010190602001808311610cd457829003601f168201915b5050505050905092915050565b60006001600160a01b038216610d685760405162461bcd60e51b815260206004820152602960248201527f4552433732313a2061646472657373207a65726f206973206e6f7420612076616044820152683634b21037bbb732b960b91b60648201526084016105d7565b506001600160a01b031660009081526003602052604090205490565b60009182526007602090815260408084206001600160a01b0393909316845291905290205460ff1690565b6060600180546104b99061223e565b610973338383611419565b610dd33383611132565b610def5760405162461bcd60e51b81526004016105d7906122c2565b610dfb848484846114e7565b50505050565b60606104a48261151a565b600082815260076020526040902060010154610e2781611322565b61067883836113b2565b7f0ce23c3e399818cfee81a7ab0880f714e53d7672b08df0fa62f2843416e1ea09610e5b81611322565b6000835111610ea25760405162461bcd60e51b81526020600482015260136024820152724449442063616e6e6f7420626520656d70747960681b60448201526064016105d7565b600a83604051610eb29190612278565b908152602001604051809103902054600014610f055760405162461bcd60e51b815260206004820152601260248201527144494420616c72656164792065786973747360701b60448201526064016105d7565b6000610f1060085490565b9050610f1c8582611622565b60008181526009602052604081209081556001810180546001600160a01b0319166001600160a01b03881617905560028101610f58868261235d565b5060038101610f67858261235d565b5081600a86604051610f799190612278565b908152604051908190036020019020556000610f9361163c565b9050610fa9876001600160a01b0316601461164e565b8260040182604051610fbb9190612278565b90815260200160405180910390209081610fd5919061235d565b50610fe4600880546001019055565b82876001600160a01b03167fe47c10b939ced4bc8b235108e6f337d997dab1b62ccb767c5db2dc0ac3c565ad8860405161101e9190611e50565b60405180910390a350505050505050565b60006001600160e01b03198216637965db0b60e01b14806104a457506104a4826117f1565b61105d81611115565b6110a45760405162461bcd60e51b8152602060048201526018602482015277115490cdcc8c4e881a5b9d985b1a59081d1bdad95b88125160421b60448201526064016105d7565b50565b600081815260046020526040902080546001600160a01b0319166001600160a01b03841690811790915581906110dc82610bb4565b6001600160a01b03167f8c5be1e5ebec7d5bd14f71427d1e84f3dd0314c0f7b2291e5b200ac8c7c3b92560405160405180910390a45050565b6000908152600260205260409020546001600160a01b0316151590565b60008061113e83610bb4565b9050806001600160a01b0316846001600160a01b0316148061118557506001600160a01b0380821660009081526005602090815260408083209388168352929052205460ff165b806111a95750836001600160a01b031661119e8461053c565b6001600160a01b0316145b949350505050565b826001600160a01b03166111c482610bb4565b6001600160a01b0316146111ea5760405162461bcd60e51b81526004016105d79061244b565b6001600160a01b03821661124c5760405162461bcd60e51b8152602060048201526024808201527f4552433732313a207472616e7366657220746f20746865207a65726f206164646044820152637265737360e01b60648201526084016105d7565b6112598383836001611816565b826001600160a01b031661126c82610bb4565b6001600160a01b0316146112925760405162461bcd60e51b81526004016105d79061244b565b600081815260046020908152604080832080546001600160a01b03199081169091556001600160a01b0387811680865260038552838620805460001901905590871680865283862080546001019055868652600290945282852080549092168417909155905184937fddf252ad1be2c89b69c2b068fc378daa952ba7f163c4a11628f55a4df523b3ef91a4505050565b6110a48133611881565b6113368282610d84565b6109735760008281526007602090815260408083206001600160a01b03851684529091529020805460ff1916600117905561136e3390565b6001600160a01b0316816001600160a01b0316837f2f8788117e7eff1d82e926ec794901d17c78024a50270940304540a733656f0d60405160405180910390a45050565b6113bc8282610d84565b156109735760008281526007602090815260408083206001600160a01b0385168085529252808320805460ff1916905551339285917ff6391f5c32d9c69d2a47ea670b442974b53935d1edc7fd64eb21e047a839171b9190a45050565b816001600160a01b0316836001600160a01b03160361147a5760405162461bcd60e51b815260206004820152601960248201527f4552433732313a20617070726f766520746f2063616c6c65720000000000000060448201526064016105d7565b6001600160a01b03838116600081815260056020908152604080832094871680845294825291829020805460ff191686151590811790915591519182527f17307eab39ab6107e8899845ad3d59bd9653f200f220920489ca2b5937696c31910160405180910390a3505050565b6114f28484846111b1565b6114fe848484846118da565b610dfb5760405162461bcd60e51b81526004016105d790612490565b606061152582611054565b6000828152600660205260408120805461153e9061223e565b80601f016020809104026020016040519081016040528092919081815260200182805461156a9061223e565b80156115b75780601f1061158c576101008083540402835291602001916115b7565b820191906000526020600020905b81548152906001019060200180831161159a57829003601f168201915b5050505050905060006115d560408051602081019091526000815290565b905080516000036115e7575092915050565b8151156116195780826040516020016116019291906124e2565b60405160208183030381529060405292505050919050565b6111a9846119db565b610973828260405180602001604052806000815250611a4e565b60604661164881611a81565b91505090565b6060600061165d836002612527565b61166890600261253e565b67ffffffffffffffff81111561168057611680611ec2565b6040519080825280601f01601f1916602001820160405280156116aa576020820181803683370190505b509050600360fc1b816000815181106116c5576116c5612551565b60200101906001600160f81b031916908160001a905350600f60fb1b816001815181106116f4576116f4612551565b60200101906001600160f81b031916908160001a9053506000611718846002612527565b61172390600161253e565b90505b600181111561179b576f181899199a1a9b1b9c1cb0b131b232b360811b85600f166010811061175757611757612551565b1a60f81b82828151811061176d5761176d612551565b60200101906001600160f81b031916908160001a90535060049490941c9361179481612567565b9050611726565b5083156117ea5760405162461bcd60e51b815260206004820181905260248201527f537472696e67733a20686578206c656e67746820696e73756666696369656e7460448201526064016105d7565b9392505050565b60006001600160e01b03198216632483248360e11b14806104a457506104a482611b14565b6001600160a01b03841615610dfb5760405162461bcd60e51b815260206004820152602b60248201527f536f756c626f756e644e46543a20746f6b656e207472616e736665722069732060448201526a1b9bdd08185b1b1bddd95960aa1b60648201526084016105d7565b61188b8282610d84565b6109735761189881611b64565b6118a383602061164e565b6040516020016118b492919061257e565b60408051601f198184030181529082905262461bcd60e51b82526105d791600401611e50565b60006001600160a01b0384163b156119d057604051630a85bd0160e11b81526001600160a01b0385169063150b7a029061191e9033908990889088906004016125f3565b6020604051808303816000875af1925050508015611959575060408051601f3d908101601f1916820190925261195691810190612630565b60015b6119b6573d808015611987576040519150601f19603f3d011682016040523d82523d6000602084013e61198c565b606091505b5080516000036119ae5760405162461bcd60e51b81526004016105d790612490565b805181602001fd5b6001600160e01b031916630a85bd0160e11b1490506111a9565b506001949350505050565b60606119e682611054565b60006119fd60408051602081019091526000815290565b90506000815111611a1d57604051806020016040528060008152506117ea565b80611a2784611a81565b604051602001611a389291906124e2565b6040516020818303038152906040529392505050565b611a588383611b7a565b611a6560008484846118da565b6106785760405162461bcd60e51b81526004016105d790612490565b60606000611a8e83611cf5565b600101905060008167ffffffffffffffff811115611aae57611aae611ec2565b6040519080825280601f01601f191660200182016040528015611ad8576020820181803683370190505b5090508181016020015b600019016f181899199a1a9b1b9c1cb0b131b232b360811b600a86061a8153600a8504945084611ae257509392505050565b60006001600160e01b031982166380ac58cd60e01b1480611b4557506001600160e01b03198216635b5e139f60e01b145b806104a457506301ffc9a760e01b6001600160e01b03198316146104a4565b60606104a46001600160a01b038316601461164e565b6001600160a01b038216611bd05760405162461bcd60e51b815260206004820181905260248201527f4552433732313a206d696e7420746f20746865207a65726f206164647265737360448201526064016105d7565b611bd981611115565b15611c265760405162461bcd60e51b815260206004820152601c60248201527f4552433732313a20746f6b656e20616c7265616479206d696e7465640000000060448201526064016105d7565b611c34600083836001611816565b611c3d81611115565b15611c8a5760405162461bcd60e51b815260206004820152601c60248201527f4552433732313a20746f6b656e20616c7265616479206d696e7465640000000060448201526064016105d7565b6001600160a01b038216600081815260036020908152604080832080546001019055848352600290915280822080546001600160a01b0319168417905551839291907fddf252ad1be2c89b69c2b068fc378daa952ba7f163c4a11628f55a4df523b3ef908290a45050565b60008072184f03e93ff9f4daa797ed6e38ed64bf6a1f0160401b8310611d345772184f03e93ff9f4daa797ed6e38ed64bf6a1f0160401b830492506040015b6d04ee2d6d415b85acef81000000008310611d60576d04ee2d6d415b85acef8100000000830492506020015b662386f26fc100008310611d7e57662386f26fc10000830492506010015b6305f5e1008310611d96576305f5e100830492506008015b6127108310611daa57612710830492506004015b60648310611dbc576064830492506002015b600a83106104a45760010192915050565b6001600160e01b0319811681146110a457600080fd5b600060208284031215611df557600080fd5b81356117ea81611dcd565b60005b83811015611e1b578181015183820152602001611e03565b50506000910152565b60008151808452611e3c816020860160208601611e00565b601f01601f19169290920160200192915050565b6020815260006117ea6020830184611e24565b600060208284031215611e7557600080fd5b5035919050565b80356001600160a01b0381168114611e9357600080fd5b919050565b60008060408385031215611eab57600080fd5b611eb483611e7c565b946020939093013593505050565b634e487b7160e01b600052604160045260246000fd5b600067ffffffffffffffff80841115611ef357611ef3611ec2565b604051601f8501601f19908116603f01168101908282118183101715611f1b57611f1b611ec2565b81604052809350858152868686011115611f3457600080fd5b858560208301376000602087830101525050509392505050565b600082601f830112611f5f57600080fd5b6117ea83833560208501611ed8565b600060208284031215611f8057600080fd5b813567ffffffffffffffff811115611f9757600080fd5b6111a984828501611f4e565b600080600060608486031215611fb857600080fd5b611fc184611e7c565b9250611fcf60208501611e7c565b9150604084013590509250925092565b600080600060608486031215611ff457600080fd5b83359250602084013567ffffffffffffffff8082111561201357600080fd5b61201f87838801611f4e565b9350604086013591508082111561203557600080fd5b5061204286828701611f4e565b9150509250925092565b6000806040838503121561205f57600080fd5b8235915061206f60208401611e7c565b90509250929050565b6000806040838503121561208b57600080fd5b82359150602083013567ffffffffffffffff8111156120a957600080fd5b6120b585828601611f4e565b9150509250929050565b8481526001600160a01b03841660208201526080604082018190526000906120e990830185611e24565b82810360608401526120fb8185611e24565b979650505050505050565b60006020828403121561211857600080fd5b6117ea82611e7c565b6000806040838503121561213457600080fd5b61213d83611e7c565b91506020830135801515811461215257600080fd5b809150509250929050565b6000806000806080858703121561217357600080fd5b61217c85611e7c565b935061218a60208601611e7c565b925060408501359150606085013567ffffffffffffffff8111156121ad57600080fd5b8501601f810187136121be57600080fd5b6121cd87823560208401611ed8565b91505092959194509250565b600080604083850312156121ec57600080fd5b6121f583611e7c565b915061206f60208401611e7c565b60008060006060848603121561221857600080fd5b61222184611e7c565b9250602084013567ffffffffffffffff8082111561201357600080fd5b600181811c9082168061225257607f821691505b60208210810361227257634e487b7160e01b600052602260045260246000fd5b50919050565b6000825161228a818460208701611e00565b9190910192915050565b602080825260149082015273151bdad95b88191bd95cc81b9bdd08195e1a5cdd60621b604082015260600190565b6020808252602d908201527f4552433732313a2063616c6c6572206973206e6f7420746f6b656e206f776e6560408201526c1c881bdc88185c1c1c9bdd9959609a1b606082015260800190565b601f82111561067857600081815260208120601f850160051c810160208610156123365750805b601f850160051c820191505b8181101561235557828155600101612342565b505050505050565b815167ffffffffffffffff81111561237757612377611ec2565b61238b81612385845461223e565b8461230f565b602080601f8311600181146123c057600084156123a85750858301515b600019600386901b1c1916600185901b178555612355565b600085815260208120601f198616915b828110156123ef578886015182559484019460019091019084016123d0565b508582101561240d5787850151600019600388901b60f8161c191681555b5050505050600190811b01905550565b6040815260006124306040830185611e24565b82810360208401526124428185611e24565b95945050505050565b60208082526025908201527f4552433732313a207472616e736665722066726f6d20696e636f72726563742060408201526437bbb732b960d91b606082015260800190565b60208082526032908201527f4552433732313a207472616e7366657220746f206e6f6e20455243373231526560408201527131b2b4bb32b91034b6b83632b6b2b73a32b960711b606082015260800190565b600083516124f4818460208801611e00565b835190830190612508818360208801611e00565b01949350505050565b634e487b7160e01b600052601160045260246000fd5b80820281158282048414176104a4576104a4612511565b808201808211156104a4576104a4612511565b634e487b7160e01b600052603260045260246000fd5b60008161257657612576612511565b506000190190565b7f416363657373436f6e74726f6c3a206163636f756e74200000000000000000008152600083516125b6816017850160208801611e00565b7001034b99036b4b9b9b4b733903937b6329607d1b60179184019182015283516125e7816028840160208801611e00565b01602801949350505050565b6001600160a01b038581168252841660208201526040810183905260806060820181905260009061262690830184611e24565b9695505050505050565b60006020828403121561264257600080fd5b81516117ea81611dcd56fea264697066735822122043e14ab95d947a10e0b39d9609ebaa76bf8f1c04384c894f54bf1a14e8d2177764736f6c63430008130033",
    "linkReferences": {},
    "deployedLinkReferences": {}
}